{
	"contracts/Main.sol": {
		"MyContract": {
			"abi": [
				{
					"inputs": [],
					"name": "getMood",
					"outputs": [
						{
							"internalType": "string",
							"name": "",
							"type": "string"
						}
					],
					"stateMutability": "view",
					"type": "function"
				},
				{
					"inputs": [
						{
							"internalType": "uint256",
							"name": "x",
							"type": "uint256"
						},
						{
							"internalType": "uint256",
							"name": "y",
							"type": "uint256"
						}
					],
					"name": "pureFunction",
					"outputs": [
						{
							"internalType": "uint256",
							"name": "",
							"type": "uint256"
						}
					],
					"stateMutability": "pure",
					"type": "function"
				},
				{
					"inputs": [
						{
							"internalType": "string",
							"name": "_myMood",
							"type": "string"
						}
					],
					"name": "setMood",
					"outputs": [],
					"stateMutability": "nonpayable",
					"type": "function"
				}
			],
			"devdoc": {
				"kind": "dev",
				"methods": {},
				"version": 1
			},
			"evm": {
				"assembly": "    /* \"contracts/Main.sol\":58:384  contract MyContract{\r... */\n  mstore(0x40, 0x80)\n  callvalue\n  dup1\n  iszero\n  tag_1\n  jumpi\n  0x00\n  dup1\n  revert\ntag_1:\n  pop\n  dataSize(sub_0)\n  dup1\n  dataOffset(sub_0)\n  0x00\n  codecopy\n  0x00\n  return\nstop\n\nsub_0: assembly {\n        /* \"contracts/Main.sol\":58:384  contract MyContract{\r... */\n      mstore(0x40, 0x80)\n      callvalue\n      dup1\n      iszero\n      tag_1\n      jumpi\n      0x00\n      dup1\n      revert\n    tag_1:\n      pop\n      jumpi(tag_2, lt(calldatasize, 0x04))\n      shr(0xe0, calldataload(0x00))\n      dup1\n      0x5f3cbff5\n      eq\n      tag_3\n      jumpi\n      dup1\n      0x9d0c1397\n      eq\n      tag_4\n      jumpi\n      dup1\n      0xda9a592c\n      eq\n      tag_5\n      jumpi\n    tag_2:\n      0x00\n      dup1\n      revert\n        /* \"contracts/Main.sol\":106:187  function setMood(string memory _myMood) public{\r... */\n    tag_3:\n      tag_6\n      0x04\n      dup1\n      calldatasize\n      sub\n      dup2\n      add\n      swap1\n      tag_7\n      swap2\n      swap1\n      tag_8\n      jump\t// in\n    tag_7:\n      tag_9\n      jump\t// in\n    tag_6:\n      stop\n        /* \"contracts/Main.sol\":195:279  function getMood()view public returns(string memory){\r... */\n    tag_4:\n      tag_10\n      tag_11\n      jump\t// in\n    tag_10:\n      mload(0x40)\n      tag_12\n      swap2\n      swap1\n      tag_13\n      jump\t// in\n    tag_12:\n      mload(0x40)\n      dup1\n      swap2\n      sub\n      swap1\n      return\n        /* \"contracts/Main.sol\":287:381  function pureFunction(uint  x,uint  y)pure public returns(uint){\r... */\n    tag_5:\n      tag_14\n      0x04\n      dup1\n      calldatasize\n      sub\n      dup2\n      add\n      swap1\n      tag_15\n      swap2\n      swap1\n      tag_16\n      jump\t// in\n    tag_15:\n      tag_17\n      jump\t// in\n    tag_14:\n      mload(0x40)\n      tag_18\n      swap2\n      swap1\n      tag_19\n      jump\t// in\n    tag_18:\n      mload(0x40)\n      dup1\n      swap2\n      sub\n      swap1\n      return\n        /* \"contracts/Main.sol\":106:187  function setMood(string memory _myMood) public{\r... */\n    tag_9:\n        /* \"contracts/Main.sol\":172:179  _myMood */\n      dup1\n        /* \"contracts/Main.sol\":163:169  myMood */\n      0x00\n        /* \"contracts/Main.sol\":163:179  myMood = _myMood */\n      swap1\n      dup1\n      mload\n      swap1\n      0x20\n      add\n      swap1\n      tag_21\n      swap3\n      swap2\n      swap1\n      tag_22\n      jump\t// in\n    tag_21:\n      pop\n        /* \"contracts/Main.sol\":106:187  function setMood(string memory _myMood) public{\r... */\n      pop\n      jump\t// out\n        /* \"contracts/Main.sol\":195:279  function getMood()view public returns(string memory){\r... */\n    tag_11:\n        /* \"contracts/Main.sol\":233:246  string memory */\n      0x60\n        /* \"contracts/Main.sol\":265:271  myMood */\n      0x00\n        /* \"contracts/Main.sol\":258:271  return myMood */\n      dup1\n      sload\n      tag_24\n      swap1\n      tag_25\n      jump\t// in\n    tag_24:\n      dup1\n      0x1f\n      add\n      0x20\n      dup1\n      swap2\n      div\n      mul\n      0x20\n      add\n      mload(0x40)\n      swap1\n      dup2\n      add\n      0x40\n      mstore\n      dup1\n      swap3\n      swap2\n      swap1\n      dup2\n      dup2\n      mstore\n      0x20\n      add\n      dup3\n      dup1\n      sload\n      tag_26\n      swap1\n      tag_25\n      jump\t// in\n    tag_26:\n      dup1\n      iszero\n      tag_27\n      jumpi\n      dup1\n      0x1f\n      lt\n      tag_28\n      jumpi\n      0x0100\n      dup1\n      dup4\n      sload\n      div\n      mul\n      dup4\n      mstore\n      swap2\n      0x20\n      add\n      swap2\n      jump(tag_27)\n    tag_28:\n      dup3\n      add\n      swap2\n      swap1\n      0x00\n      mstore\n      keccak256(0x00, 0x20)\n      swap1\n    tag_29:\n      dup2\n      sload\n      dup2\n      mstore\n      swap1\n      0x01\n      add\n      swap1\n      0x20\n      add\n      dup1\n      dup4\n      gt\n      tag_29\n      jumpi\n      dup3\n      swap1\n      sub\n      0x1f\n      and\n      dup3\n      add\n      swap2\n    tag_27:\n      pop\n      pop\n      pop\n      pop\n      pop\n      swap1\n      pop\n        /* \"contracts/Main.sol\":195:279  function getMood()view public returns(string memory){\r... */\n      swap1\n      jump\t// out\n        /* \"contracts/Main.sol\":287:381  function pureFunction(uint  x,uint  y)pure public returns(uint){\r... */\n    tag_17:\n        /* \"contracts/Main.sol\":345:349  uint */\n      0x00\n        /* \"contracts/Main.sol\":371:372  y */\n      dup2\n        /* \"contracts/Main.sol\":369:370  x */\n      dup4\n        /* \"contracts/Main.sol\":369:372  x+y */\n      tag_31\n      swap2\n      swap1\n      tag_32\n      jump\t// in\n    tag_31:\n        /* \"contracts/Main.sol\":361:373  return (x+y) */\n      swap1\n      pop\n        /* \"contracts/Main.sol\":287:381  function pureFunction(uint  x,uint  y)pure public returns(uint){\r... */\n      swap3\n      swap2\n      pop\n      pop\n      jump\t// out\n    tag_22:\n      dup3\n      dup1\n      sload\n      tag_33\n      swap1\n      tag_25\n      jump\t// in\n    tag_33:\n      swap1\n      0x00\n      mstore\n      keccak256(0x00, 0x20)\n      swap1\n      0x1f\n      add\n      0x20\n      swap1\n      div\n      dup2\n      add\n      swap3\n      dup3\n      tag_35\n      jumpi\n      0x00\n      dup6\n      sstore\n      jump(tag_34)\n    tag_35:\n      dup3\n      0x1f\n      lt\n      tag_36\n      jumpi\n      dup1\n      mload\n      not(0xff)\n      and\n      dup4\n      dup1\n      add\n      or\n      dup6\n      sstore\n      jump(tag_34)\n    tag_36:\n      dup3\n      dup1\n      add\n      0x01\n      add\n      dup6\n      sstore\n      dup3\n      iszero\n      tag_34\n      jumpi\n      swap2\n      dup3\n      add\n    tag_37:\n      dup3\n      dup2\n      gt\n      iszero\n      tag_38\n      jumpi\n      dup3\n      mload\n      dup3\n      sstore\n      swap2\n      0x20\n      add\n      swap2\n      swap1\n      0x01\n      add\n      swap1\n      jump(tag_37)\n    tag_38:\n    tag_34:\n      pop\n      swap1\n      pop\n      tag_39\n      swap2\n      swap1\n      tag_40\n      jump\t// in\n    tag_39:\n      pop\n      swap1\n      jump\t// out\n    tag_40:\n    tag_41:\n      dup1\n      dup3\n      gt\n      iszero\n      tag_42\n      jumpi\n      0x00\n      dup2\n      0x00\n      swap1\n      sstore\n      pop\n      0x01\n      add\n      jump(tag_41)\n    tag_42:\n      pop\n      swap1\n      jump\t// out\n        /* \"#utility.yul\":7:419   */\n    tag_44:\n        /* \"#utility.yul\":85:90   */\n      0x00\n        /* \"#utility.yul\":110:176   */\n      tag_46\n        /* \"#utility.yul\":126:175   */\n      tag_47\n        /* \"#utility.yul\":168:174   */\n      dup5\n        /* \"#utility.yul\":126:175   */\n      tag_48\n      jump\t// in\n    tag_47:\n        /* \"#utility.yul\":110:176   */\n      tag_49\n      jump\t// in\n    tag_46:\n        /* \"#utility.yul\":101:176   */\n      swap1\n      pop\n        /* \"#utility.yul\":199:205   */\n      dup3\n        /* \"#utility.yul\":192:197   */\n      dup2\n        /* \"#utility.yul\":185:206   */\n      mstore\n        /* \"#utility.yul\":237:241   */\n      0x20\n        /* \"#utility.yul\":230:235   */\n      dup2\n        /* \"#utility.yul\":226:242   */\n      add\n        /* \"#utility.yul\":275:278   */\n      dup5\n        /* \"#utility.yul\":266:272   */\n      dup5\n        /* \"#utility.yul\":261:264   */\n      dup5\n        /* \"#utility.yul\":257:273   */\n      add\n        /* \"#utility.yul\":254:279   */\n      gt\n        /* \"#utility.yul\":251:363   */\n      iszero\n      tag_50\n      jumpi\n        /* \"#utility.yul\":282:361   */\n      tag_51\n      tag_52\n      jump\t// in\n    tag_51:\n        /* \"#utility.yul\":251:363   */\n    tag_50:\n        /* \"#utility.yul\":372:413   */\n      tag_53\n        /* \"#utility.yul\":406:412   */\n      dup5\n        /* \"#utility.yul\":401:404   */\n      dup3\n        /* \"#utility.yul\":396:399   */\n      dup6\n        /* \"#utility.yul\":372:413   */\n      tag_54\n      jump\t// in\n    tag_53:\n        /* \"#utility.yul\":91:419   */\n      pop\n        /* \"#utility.yul\":7:419   */\n      swap4\n      swap3\n      pop\n      pop\n      pop\n      jump\t// out\n        /* \"#utility.yul\":439:779   */\n    tag_55:\n        /* \"#utility.yul\":495:500   */\n      0x00\n        /* \"#utility.yul\":544:547   */\n      dup3\n        /* \"#utility.yul\":537:541   */\n      0x1f\n        /* \"#utility.yul\":529:535   */\n      dup4\n        /* \"#utility.yul\":525:542   */\n      add\n        /* \"#utility.yul\":521:548   */\n      slt\n        /* \"#utility.yul\":511:633   */\n      tag_57\n      jumpi\n        /* \"#utility.yul\":552:631   */\n      tag_58\n      tag_59\n      jump\t// in\n    tag_58:\n        /* \"#utility.yul\":511:633   */\n    tag_57:\n        /* \"#utility.yul\":669:675   */\n      dup2\n        /* \"#utility.yul\":656:676   */\n      calldataload\n        /* \"#utility.yul\":694:773   */\n      tag_60\n        /* \"#utility.yul\":769:772   */\n      dup5\n        /* \"#utility.yul\":761:767   */\n      dup3\n        /* \"#utility.yul\":754:758   */\n      0x20\n        /* \"#utility.yul\":746:752   */\n      dup7\n        /* \"#utility.yul\":742:759   */\n      add\n        /* \"#utility.yul\":694:773   */\n      tag_44\n      jump\t// in\n    tag_60:\n        /* \"#utility.yul\":685:773   */\n      swap2\n      pop\n        /* \"#utility.yul\":501:779   */\n      pop\n        /* \"#utility.yul\":439:779   */\n      swap3\n      swap2\n      pop\n      pop\n      jump\t// out\n        /* \"#utility.yul\":785:924   */\n    tag_61:\n        /* \"#utility.yul\":831:836   */\n      0x00\n        /* \"#utility.yul\":869:875   */\n      dup2\n        /* \"#utility.yul\":856:876   */\n      calldataload\n        /* \"#utility.yul\":847:876   */\n      swap1\n      pop\n        /* \"#utility.yul\":885:918   */\n      tag_63\n        /* \"#utility.yul\":912:917   */\n      dup2\n        /* \"#utility.yul\":885:918   */\n      tag_64\n      jump\t// in\n    tag_63:\n        /* \"#utility.yul\":785:924   */\n      swap3\n      swap2\n      pop\n      pop\n      jump\t// out\n        /* \"#utility.yul\":930:1439   */\n    tag_8:\n        /* \"#utility.yul\":999:1005   */\n      0x00\n        /* \"#utility.yul\":1048:1050   */\n      0x20\n        /* \"#utility.yul\":1036:1045   */\n      dup3\n        /* \"#utility.yul\":1027:1034   */\n      dup5\n        /* \"#utility.yul\":1023:1046   */\n      sub\n        /* \"#utility.yul\":1019:1051   */\n      slt\n        /* \"#utility.yul\":1016:1135   */\n      iszero\n      tag_66\n      jumpi\n        /* \"#utility.yul\":1054:1133   */\n      tag_67\n      tag_68\n      jump\t// in\n    tag_67:\n        /* \"#utility.yul\":1016:1135   */\n    tag_66:\n        /* \"#utility.yul\":1202:1203   */\n      0x00\n        /* \"#utility.yul\":1191:1200   */\n      dup3\n        /* \"#utility.yul\":1187:1204   */\n      add\n        /* \"#utility.yul\":1174:1205   */\n      calldataload\n        /* \"#utility.yul\":1232:1250   */\n      0xffffffffffffffff\n        /* \"#utility.yul\":1224:1230   */\n      dup2\n        /* \"#utility.yul\":1221:1251   */\n      gt\n        /* \"#utility.yul\":1218:1335   */\n      iszero\n      tag_69\n      jumpi\n        /* \"#utility.yul\":1254:1333   */\n      tag_70\n      tag_71\n      jump\t// in\n    tag_70:\n        /* \"#utility.yul\":1218:1335   */\n    tag_69:\n        /* \"#utility.yul\":1359:1422   */\n      tag_72\n        /* \"#utility.yul\":1414:1421   */\n      dup5\n        /* \"#utility.yul\":1405:1411   */\n      dup3\n        /* \"#utility.yul\":1394:1403   */\n      dup6\n        /* \"#utility.yul\":1390:1412   */\n      add\n        /* \"#utility.yul\":1359:1422   */\n      tag_55\n      jump\t// in\n    tag_72:\n        /* \"#utility.yul\":1349:1422   */\n      swap2\n      pop\n        /* \"#utility.yul\":1145:1432   */\n      pop\n        /* \"#utility.yul\":930:1439   */\n      swap3\n      swap2\n      pop\n      pop\n      jump\t// out\n        /* \"#utility.yul\":1445:1919   */\n    tag_16:\n        /* \"#utility.yul\":1513:1519   */\n      0x00\n        /* \"#utility.yul\":1521:1527   */\n      dup1\n        /* \"#utility.yul\":1570:1572   */\n      0x40\n        /* \"#utility.yul\":1558:1567   */\n      dup4\n        /* \"#utility.yul\":1549:1556   */\n      dup6\n        /* \"#utility.yul\":1545:1568   */\n      sub\n        /* \"#utility.yul\":1541:1573   */\n      slt\n        /* \"#utility.yul\":1538:1657   */\n      iszero\n      tag_74\n      jumpi\n        /* \"#utility.yul\":1576:1655   */\n      tag_75\n      tag_68\n      jump\t// in\n    tag_75:\n        /* \"#utility.yul\":1538:1657   */\n    tag_74:\n        /* \"#utility.yul\":1696:1697   */\n      0x00\n        /* \"#utility.yul\":1721:1774   */\n      tag_76\n        /* \"#utility.yul\":1766:1773   */\n      dup6\n        /* \"#utility.yul\":1757:1763   */\n      dup3\n        /* \"#utility.yul\":1746:1755   */\n      dup7\n        /* \"#utility.yul\":1742:1764   */\n      add\n        /* \"#utility.yul\":1721:1774   */\n      tag_61\n      jump\t// in\n    tag_76:\n        /* \"#utility.yul\":1711:1774   */\n      swap3\n      pop\n        /* \"#utility.yul\":1667:1784   */\n      pop\n        /* \"#utility.yul\":1823:1825   */\n      0x20\n        /* \"#utility.yul\":1849:1902   */\n      tag_77\n        /* \"#utility.yul\":1894:1901   */\n      dup6\n        /* \"#utility.yul\":1885:1891   */\n      dup3\n        /* \"#utility.yul\":1874:1883   */\n      dup7\n        /* \"#utility.yul\":1870:1892   */\n      add\n        /* \"#utility.yul\":1849:1902   */\n      tag_61\n      jump\t// in\n    tag_77:\n        /* \"#utility.yul\":1839:1902   */\n      swap2\n      pop\n        /* \"#utility.yul\":1794:1912   */\n      pop\n        /* \"#utility.yul\":1445:1919   */\n      swap3\n      pop\n      swap3\n      swap1\n      pop\n      jump\t// out\n        /* \"#utility.yul\":1925:2289   */\n    tag_78:\n        /* \"#utility.yul\":2013:2016   */\n      0x00\n        /* \"#utility.yul\":2041:2080   */\n      tag_80\n        /* \"#utility.yul\":2074:2079   */\n      dup3\n        /* \"#utility.yul\":2041:2080   */\n      tag_81\n      jump\t// in\n    tag_80:\n        /* \"#utility.yul\":2096:2167   */\n      tag_82\n        /* \"#utility.yul\":2160:2166   */\n      dup2\n        /* \"#utility.yul\":2155:2158   */\n      dup6\n        /* \"#utility.yul\":2096:2167   */\n      tag_83\n      jump\t// in\n    tag_82:\n        /* \"#utility.yul\":2089:2167   */\n      swap4\n      pop\n        /* \"#utility.yul\":2176:2228   */\n      tag_84\n        /* \"#utility.yul\":2221:2227   */\n      dup2\n        /* \"#utility.yul\":2216:2219   */\n      dup6\n        /* \"#utility.yul\":2209:2213   */\n      0x20\n        /* \"#utility.yul\":2202:2207   */\n      dup7\n        /* \"#utility.yul\":2198:2214   */\n      add\n        /* \"#utility.yul\":2176:2228   */\n      tag_85\n      jump\t// in\n    tag_84:\n        /* \"#utility.yul\":2253:2282   */\n      tag_86\n        /* \"#utility.yul\":2275:2281   */\n      dup2\n        /* \"#utility.yul\":2253:2282   */\n      tag_87\n      jump\t// in\n    tag_86:\n        /* \"#utility.yul\":2248:2251   */\n      dup5\n        /* \"#utility.yul\":2244:2283   */\n      add\n        /* \"#utility.yul\":2237:2283   */\n      swap2\n      pop\n        /* \"#utility.yul\":2017:2289   */\n      pop\n        /* \"#utility.yul\":1925:2289   */\n      swap3\n      swap2\n      pop\n      pop\n      jump\t// out\n        /* \"#utility.yul\":2295:2413   */\n    tag_88:\n        /* \"#utility.yul\":2382:2406   */\n      tag_90\n        /* \"#utility.yul\":2400:2405   */\n      dup2\n        /* \"#utility.yul\":2382:2406   */\n      tag_91\n      jump\t// in\n    tag_90:\n        /* \"#utility.yul\":2377:2380   */\n      dup3\n        /* \"#utility.yul\":2370:2407   */\n      mstore\n        /* \"#utility.yul\":2295:2413   */\n      pop\n      pop\n      jump\t// out\n        /* \"#utility.yul\":2419:2732   */\n    tag_13:\n        /* \"#utility.yul\":2532:2536   */\n      0x00\n        /* \"#utility.yul\":2570:2572   */\n      0x20\n        /* \"#utility.yul\":2559:2568   */\n      dup3\n        /* \"#utility.yul\":2555:2573   */\n      add\n        /* \"#utility.yul\":2547:2573   */\n      swap1\n      pop\n        /* \"#utility.yul\":2619:2628   */\n      dup2\n        /* \"#utility.yul\":2613:2617   */\n      dup2\n        /* \"#utility.yul\":2609:2629   */\n      sub\n        /* \"#utility.yul\":2605:2606   */\n      0x00\n        /* \"#utility.yul\":2594:2603   */\n      dup4\n        /* \"#utility.yul\":2590:2607   */\n      add\n        /* \"#utility.yul\":2583:2630   */\n      mstore\n        /* \"#utility.yul\":2647:2725   */\n      tag_93\n        /* \"#utility.yul\":2720:2724   */\n      dup2\n        /* \"#utility.yul\":2711:2717   */\n      dup5\n        /* \"#utility.yul\":2647:2725   */\n      tag_78\n      jump\t// in\n    tag_93:\n        /* \"#utility.yul\":2639:2725   */\n      swap1\n      pop\n        /* \"#utility.yul\":2419:2732   */\n      swap3\n      swap2\n      pop\n      pop\n      jump\t// out\n        /* \"#utility.yul\":2738:2960   */\n    tag_19:\n        /* \"#utility.yul\":2831:2835   */\n      0x00\n        /* \"#utility.yul\":2869:2871   */\n      0x20\n        /* \"#utility.yul\":2858:2867   */\n      dup3\n        /* \"#utility.yul\":2854:2872   */\n      add\n        /* \"#utility.yul\":2846:2872   */\n      swap1\n      pop\n        /* \"#utility.yul\":2882:2953   */\n      tag_95\n        /* \"#utility.yul\":2950:2951   */\n      0x00\n        /* \"#utility.yul\":2939:2948   */\n      dup4\n        /* \"#utility.yul\":2935:2952   */\n      add\n        /* \"#utility.yul\":2926:2932   */\n      dup5\n        /* \"#utility.yul\":2882:2953   */\n      tag_88\n      jump\t// in\n    tag_95:\n        /* \"#utility.yul\":2738:2960   */\n      swap3\n      swap2\n      pop\n      pop\n      jump\t// out\n        /* \"#utility.yul\":2966:3095   */\n    tag_49:\n        /* \"#utility.yul\":3000:3006   */\n      0x00\n        /* \"#utility.yul\":3027:3047   */\n      tag_97\n      tag_98\n      jump\t// in\n    tag_97:\n        /* \"#utility.yul\":3017:3047   */\n      swap1\n      pop\n        /* \"#utility.yul\":3056:3089   */\n      tag_99\n        /* \"#utility.yul\":3084:3088   */\n      dup3\n        /* \"#utility.yul\":3076:3082   */\n      dup3\n        /* \"#utility.yul\":3056:3089   */\n      tag_100\n      jump\t// in\n    tag_99:\n        /* \"#utility.yul\":2966:3095   */\n      swap2\n      swap1\n      pop\n      jump\t// out\n        /* \"#utility.yul\":3101:3176   */\n    tag_98:\n        /* \"#utility.yul\":3134:3140   */\n      0x00\n        /* \"#utility.yul\":3167:3169   */\n      0x40\n        /* \"#utility.yul\":3161:3170   */\n      mload\n        /* \"#utility.yul\":3151:3170   */\n      swap1\n      pop\n        /* \"#utility.yul\":3101:3176   */\n      swap1\n      jump\t// out\n        /* \"#utility.yul\":3182:3490   */\n    tag_48:\n        /* \"#utility.yul\":3244:3248   */\n      0x00\n        /* \"#utility.yul\":3334:3352   */\n      0xffffffffffffffff\n        /* \"#utility.yul\":3326:3332   */\n      dup3\n        /* \"#utility.yul\":3323:3353   */\n      gt\n        /* \"#utility.yul\":3320:3376   */\n      iszero\n      tag_103\n      jumpi\n        /* \"#utility.yul\":3356:3374   */\n      tag_104\n      tag_105\n      jump\t// in\n    tag_104:\n        /* \"#utility.yul\":3320:3376   */\n    tag_103:\n        /* \"#utility.yul\":3394:3423   */\n      tag_106\n        /* \"#utility.yul\":3416:3422   */\n      dup3\n        /* \"#utility.yul\":3394:3423   */\n      tag_87\n      jump\t// in\n    tag_106:\n        /* \"#utility.yul\":3386:3423   */\n      swap1\n      pop\n        /* \"#utility.yul\":3478:3482   */\n      0x20\n        /* \"#utility.yul\":3472:3476   */\n      dup2\n        /* \"#utility.yul\":3468:3483   */\n      add\n        /* \"#utility.yul\":3460:3483   */\n      swap1\n      pop\n        /* \"#utility.yul\":3182:3490   */\n      swap2\n      swap1\n      pop\n      jump\t// out\n        /* \"#utility.yul\":3496:3595   */\n    tag_81:\n        /* \"#utility.yul\":3548:3554   */\n      0x00\n        /* \"#utility.yul\":3582:3587   */\n      dup2\n        /* \"#utility.yul\":3576:3588   */\n      mload\n        /* \"#utility.yul\":3566:3588   */\n      swap1\n      pop\n        /* \"#utility.yul\":3496:3595   */\n      swap2\n      swap1\n      pop\n      jump\t// out\n        /* \"#utility.yul\":3601:3770   */\n    tag_83:\n        /* \"#utility.yul\":3685:3696   */\n      0x00\n        /* \"#utility.yul\":3719:3725   */\n      dup3\n        /* \"#utility.yul\":3714:3717   */\n      dup3\n        /* \"#utility.yul\":3707:3726   */\n      mstore\n        /* \"#utility.yul\":3759:3763   */\n      0x20\n        /* \"#utility.yul\":3754:3757   */\n      dup3\n        /* \"#utility.yul\":3750:3764   */\n      add\n        /* \"#utility.yul\":3735:3764   */\n      swap1\n      pop\n        /* \"#utility.yul\":3601:3770   */\n      swap3\n      swap2\n      pop\n      pop\n      jump\t// out\n        /* \"#utility.yul\":3776:4081   */\n    tag_32:\n        /* \"#utility.yul\":3816:3819   */\n      0x00\n        /* \"#utility.yul\":3835:3855   */\n      tag_110\n        /* \"#utility.yul\":3853:3854   */\n      dup3\n        /* \"#utility.yul\":3835:3855   */\n      tag_91\n      jump\t// in\n    tag_110:\n        /* \"#utility.yul\":3830:3855   */\n      swap2\n      pop\n        /* \"#utility.yul\":3869:3889   */\n      tag_111\n        /* \"#utility.yul\":3887:3888   */\n      dup4\n        /* \"#utility.yul\":3869:3889   */\n      tag_91\n      jump\t// in\n    tag_111:\n        /* \"#utility.yul\":3864:3889   */\n      swap3\n      pop\n        /* \"#utility.yul\":4023:4024   */\n      dup3\n        /* \"#utility.yul\":3955:4021   */\n      0xffffffffffffffffffffffffffffffffffffffffffffffffffffffffffffffff\n        /* \"#utility.yul\":3951:4025   */\n      sub\n        /* \"#utility.yul\":3948:3949   */\n      dup3\n        /* \"#utility.yul\":3945:4026   */\n      gt\n        /* \"#utility.yul\":3942:4049   */\n      iszero\n      tag_112\n      jumpi\n        /* \"#utility.yul\":4029:4047   */\n      tag_113\n      tag_114\n      jump\t// in\n    tag_113:\n        /* \"#utility.yul\":3942:4049   */\n    tag_112:\n        /* \"#utility.yul\":4073:4074   */\n      dup3\n        /* \"#utility.yul\":4070:4071   */\n      dup3\n        /* \"#utility.yul\":4066:4075   */\n      add\n        /* \"#utility.yul\":4059:4075   */\n      swap1\n      pop\n        /* \"#utility.yul\":3776:4081   */\n      swap3\n      swap2\n      pop\n      pop\n      jump\t// out\n        /* \"#utility.yul\":4087:4164   */\n    tag_91:\n        /* \"#utility.yul\":4124:4131   */\n      0x00\n        /* \"#utility.yul\":4153:4158   */\n      dup2\n        /* \"#utility.yul\":4142:4158   */\n      swap1\n      pop\n        /* \"#utility.yul\":4087:4164   */\n      swap2\n      swap1\n      pop\n      jump\t// out\n        /* \"#utility.yul\":4170:4324   */\n    tag_54:\n        /* \"#utility.yul\":4254:4260   */\n      dup3\n        /* \"#utility.yul\":4249:4252   */\n      dup2\n        /* \"#utility.yul\":4244:4247   */\n      dup4\n        /* \"#utility.yul\":4231:4261   */\n      calldatacopy\n        /* \"#utility.yul\":4316:4317   */\n      0x00\n        /* \"#utility.yul\":4307:4313   */\n      dup4\n        /* \"#utility.yul\":4302:4305   */\n      dup4\n        /* \"#utility.yul\":4298:4314   */\n      add\n        /* \"#utility.yul\":4291:4318   */\n      mstore\n        /* \"#utility.yul\":4170:4324   */\n      pop\n      pop\n      pop\n      jump\t// out\n        /* \"#utility.yul\":4330:4637   */\n    tag_85:\n        /* \"#utility.yul\":4398:4399   */\n      0x00\n        /* \"#utility.yul\":4408:4521   */\n    tag_118:\n        /* \"#utility.yul\":4422:4428   */\n      dup4\n        /* \"#utility.yul\":4419:4420   */\n      dup2\n        /* \"#utility.yul\":4416:4429   */\n      lt\n        /* \"#utility.yul\":4408:4521   */\n      iszero\n      tag_120\n      jumpi\n        /* \"#utility.yul\":4507:4508   */\n      dup1\n        /* \"#utility.yul\":4502:4505   */\n      dup3\n        /* \"#utility.yul\":4498:4509   */\n      add\n        /* \"#utility.yul\":4492:4510   */\n      mload\n        /* \"#utility.yul\":4488:4489   */\n      dup2\n        /* \"#utility.yul\":4483:4486   */\n      dup5\n        /* \"#utility.yul\":4479:4490   */\n      add\n        /* \"#utility.yul\":4472:4511   */\n      mstore\n        /* \"#utility.yul\":4444:4446   */\n      0x20\n        /* \"#utility.yul\":4441:4442   */\n      dup2\n        /* \"#utility.yul\":4437:4447   */\n      add\n        /* \"#utility.yul\":4432:4447   */\n      swap1\n      pop\n        /* \"#utility.yul\":4408:4521   */\n      jump(tag_118)\n    tag_120:\n        /* \"#utility.yul\":4539:4545   */\n      dup4\n        /* \"#utility.yul\":4536:4537   */\n      dup2\n        /* \"#utility.yul\":4533:4546   */\n      gt\n        /* \"#utility.yul\":4530:4631   */\n      iszero\n      tag_121\n      jumpi\n        /* \"#utility.yul\":4619:4620   */\n      0x00\n        /* \"#utility.yul\":4610:4616   */\n      dup5\n        /* \"#utility.yul\":4605:4608   */\n      dup5\n        /* \"#utility.yul\":4601:4617   */\n      add\n        /* \"#utility.yul\":4594:4621   */\n      mstore\n        /* \"#utility.yul\":4530:4631   */\n    tag_121:\n        /* \"#utility.yul\":4379:4637   */\n      pop\n        /* \"#utility.yul\":4330:4637   */\n      pop\n      pop\n      pop\n      jump\t// out\n        /* \"#utility.yul\":4643:4963   */\n    tag_25:\n        /* \"#utility.yul\":4687:4693   */\n      0x00\n        /* \"#utility.yul\":4724:4725   */\n      0x02\n        /* \"#utility.yul\":4718:4722   */\n      dup3\n        /* \"#utility.yul\":4714:4726   */\n      div\n        /* \"#utility.yul\":4704:4726   */\n      swap1\n      pop\n        /* \"#utility.yul\":4771:4772   */\n      0x01\n        /* \"#utility.yul\":4765:4769   */\n      dup3\n        /* \"#utility.yul\":4761:4773   */\n      and\n        /* \"#utility.yul\":4792:4810   */\n      dup1\n        /* \"#utility.yul\":4782:4863   */\n      tag_123\n      jumpi\n        /* \"#utility.yul\":4848:4852   */\n      0x7f\n        /* \"#utility.yul\":4840:4846   */\n      dup3\n        /* \"#utility.yul\":4836:4853   */\n      and\n        /* \"#utility.yul\":4826:4853   */\n      swap2\n      pop\n        /* \"#utility.yul\":4782:4863   */\n    tag_123:\n        /* \"#utility.yul\":4910:4912   */\n      0x20\n        /* \"#utility.yul\":4902:4908   */\n      dup3\n        /* \"#utility.yul\":4899:4913   */\n      lt\n        /* \"#utility.yul\":4879:4897   */\n      dup2\n        /* \"#utility.yul\":4876:4914   */\n      eq\n        /* \"#utility.yul\":4873:4957   */\n      iszero\n      tag_124\n      jumpi\n        /* \"#utility.yul\":4929:4947   */\n      tag_125\n      tag_126\n      jump\t// in\n    tag_125:\n        /* \"#utility.yul\":4873:4957   */\n    tag_124:\n        /* \"#utility.yul\":4694:4963   */\n      pop\n        /* \"#utility.yul\":4643:4963   */\n      swap2\n      swap1\n      pop\n      jump\t// out\n        /* \"#utility.yul\":4969:5250   */\n    tag_100:\n        /* \"#utility.yul\":5052:5079   */\n      tag_128\n        /* \"#utility.yul\":5074:5078   */\n      dup3\n        /* \"#utility.yul\":5052:5079   */\n      tag_87\n      jump\t// in\n    tag_128:\n        /* \"#utility.yul\":5044:5050   */\n      dup2\n        /* \"#utility.yul\":5040:5080   */\n      add\n        /* \"#utility.yul\":5182:5188   */\n      dup2\n        /* \"#utility.yul\":5170:5180   */\n      dup2\n        /* \"#utility.yul\":5167:5189   */\n      lt\n        /* \"#utility.yul\":5146:5164   */\n      0xffffffffffffffff\n        /* \"#utility.yul\":5134:5144   */\n      dup3\n        /* \"#utility.yul\":5131:5165   */\n      gt\n        /* \"#utility.yul\":5128:5190   */\n      or\n        /* \"#utility.yul\":5125:5213   */\n      iszero\n      tag_129\n      jumpi\n        /* \"#utility.yul\":5193:5211   */\n      tag_130\n      tag_105\n      jump\t// in\n    tag_130:\n        /* \"#utility.yul\":5125:5213   */\n    tag_129:\n        /* \"#utility.yul\":5233:5243   */\n      dup1\n        /* \"#utility.yul\":5229:5231   */\n      0x40\n        /* \"#utility.yul\":5222:5244   */\n      mstore\n        /* \"#utility.yul\":5012:5250   */\n      pop\n        /* \"#utility.yul\":4969:5250   */\n      pop\n      pop\n      jump\t// out\n        /* \"#utility.yul\":5256:5436   */\n    tag_114:\n        /* \"#utility.yul\":5304:5381   */\n      0x4e487b7100000000000000000000000000000000000000000000000000000000\n        /* \"#utility.yul\":5301:5302   */\n      0x00\n        /* \"#utility.yul\":5294:5382   */\n      mstore\n        /* \"#utility.yul\":5401:5405   */\n      0x11\n        /* \"#utility.yul\":5398:5399   */\n      0x04\n        /* \"#utility.yul\":5391:5406   */\n      mstore\n        /* \"#utility.yul\":5425:5429   */\n      0x24\n        /* \"#utility.yul\":5422:5423   */\n      0x00\n        /* \"#utility.yul\":5415:5430   */\n      revert\n        /* \"#utility.yul\":5442:5622   */\n    tag_126:\n        /* \"#utility.yul\":5490:5567   */\n      0x4e487b7100000000000000000000000000000000000000000000000000000000\n        /* \"#utility.yul\":5487:5488   */\n      0x00\n        /* \"#utility.yul\":5480:5568   */\n      mstore\n        /* \"#utility.yul\":5587:5591   */\n      0x22\n        /* \"#utility.yul\":5584:5585   */\n      0x04\n        /* \"#utility.yul\":5577:5592   */\n      mstore\n        /* \"#utility.yul\":5611:5615   */\n      0x24\n        /* \"#utility.yul\":5608:5609   */\n      0x00\n        /* \"#utility.yul\":5601:5616   */\n      revert\n        /* \"#utility.yul\":5628:5808   */\n    tag_105:\n        /* \"#utility.yul\":5676:5753   */\n      0x4e487b7100000000000000000000000000000000000000000000000000000000\n        /* \"#utility.yul\":5673:5674   */\n      0x00\n        /* \"#utility.yul\":5666:5754   */\n      mstore\n        /* \"#utility.yul\":5773:5777   */\n      0x41\n        /* \"#utility.yul\":5770:5771   */\n      0x04\n        /* \"#utility.yul\":5763:5778   */\n      mstore\n        /* \"#utility.yul\":5797:5801   */\n      0x24\n        /* \"#utility.yul\":5794:5795   */\n      0x00\n        /* \"#utility.yul\":5787:5802   */\n      revert\n        /* \"#utility.yul\":5814:5931   */\n    tag_59:\n        /* \"#utility.yul\":5923:5924   */\n      0x00\n        /* \"#utility.yul\":5920:5921   */\n      dup1\n        /* \"#utility.yul\":5913:5925   */\n      revert\n        /* \"#utility.yul\":5937:6054   */\n    tag_52:\n        /* \"#utility.yul\":6046:6047   */\n      0x00\n        /* \"#utility.yul\":6043:6044   */\n      dup1\n        /* \"#utility.yul\":6036:6048   */\n      revert\n        /* \"#utility.yul\":6060:6177   */\n    tag_71:\n        /* \"#utility.yul\":6169:6170   */\n      0x00\n        /* \"#utility.yul\":6166:6167   */\n      dup1\n        /* \"#utility.yul\":6159:6171   */\n      revert\n        /* \"#utility.yul\":6183:6300   */\n    tag_68:\n        /* \"#utility.yul\":6292:6293   */\n      0x00\n        /* \"#utility.yul\":6289:6290   */\n      dup1\n        /* \"#utility.yul\":6282:6294   */\n      revert\n        /* \"#utility.yul\":6306:6408   */\n    tag_87:\n        /* \"#utility.yul\":6347:6353   */\n      0x00\n        /* \"#utility.yul\":6398:6400   */\n      0x1f\n        /* \"#utility.yul\":6394:6401   */\n      not\n        /* \"#utility.yul\":6389:6391   */\n      0x1f\n        /* \"#utility.yul\":6382:6387   */\n      dup4\n        /* \"#utility.yul\":6378:6392   */\n      add\n        /* \"#utility.yul\":6374:6402   */\n      and\n        /* \"#utility.yul\":6364:6402   */\n      swap1\n      pop\n        /* \"#utility.yul\":6306:6408   */\n      swap2\n      swap1\n      pop\n      jump\t// out\n        /* \"#utility.yul\":6414:6536   */\n    tag_64:\n        /* \"#utility.yul\":6487:6511   */\n      tag_140\n        /* \"#utility.yul\":6505:6510   */\n      dup2\n        /* \"#utility.yul\":6487:6511   */\n      tag_91\n      jump\t// in\n    tag_140:\n        /* \"#utility.yul\":6480:6485   */\n      dup2\n        /* \"#utility.yul\":6477:6512   */\n      eq\n        /* \"#utility.yul\":6467:6530   */\n      tag_141\n      jumpi\n        /* \"#utility.yul\":6526:6527   */\n      0x00\n        /* \"#utility.yul\":6523:6524   */\n      dup1\n        /* \"#utility.yul\":6516:6528   */\n      revert\n        /* \"#utility.yul\":6467:6530   */\n    tag_141:\n        /* \"#utility.yul\":6414:6536   */\n      pop\n      jump\t// out\n\n    auxdata: 0xa2646970667358221220e21e18a926cbdcdcc1a9b6953a3f28c1b4f32350c8c798bc417b32af71a45d5864736f6c63430008070033\n}\n",
				"bytecode": {
					"linkReferences": {},
					"object": "608060405234801561001057600080fd5b5061061e806100206000396000f3fe608060405234801561001057600080fd5b50600436106100415760003560e01c80635f3cbff5146100465780639d0c139714610062578063da9a592c14610080575b600080fd5b610060600480360381019061005b919061029a565b6100b0565b005b61006a6100ca565b604051610077919061036b565b60405180910390f35b61009a600480360381019061009591906102e3565b61015c565b6040516100a7919061038d565b60405180910390f35b80600090805190602001906100c6929190610172565b5050565b6060600080546100d9906104bc565b80601f0160208091040260200160405190810160405280929190818152602001828054610105906104bc565b80156101525780601f1061012757610100808354040283529160200191610152565b820191906000526020600020905b81548152906001019060200180831161013557829003601f168201915b5050505050905090565b6000818361016a919061041a565b905092915050565b82805461017e906104bc565b90600052602060002090601f0160209004810192826101a057600085556101e7565b82601f106101b957805160ff19168380011785556101e7565b828001600101855582156101e7579182015b828111156101e65782518255916020019190600101906101cb565b5b5090506101f491906101f8565b5090565b5b808211156102115760008160009055506001016101f9565b5090565b6000610228610223846103cd565b6103a8565b905082815260208101848484011115610244576102436105b1565b5b61024f84828561047a565b509392505050565b600082601f83011261026c5761026b6105ac565b5b813561027c848260208601610215565b91505092915050565b600081359050610294816105d1565b92915050565b6000602082840312156102b0576102af6105bb565b5b600082013567ffffffffffffffff8111156102ce576102cd6105b6565b5b6102da84828501610257565b91505092915050565b600080604083850312156102fa576102f96105bb565b5b600061030885828601610285565b925050602061031985828601610285565b9150509250929050565b600061032e826103fe565b6103388185610409565b9350610348818560208601610489565b610351816105c0565b840191505092915050565b61036581610470565b82525050565b600060208201905081810360008301526103858184610323565b905092915050565b60006020820190506103a2600083018461035c565b92915050565b60006103b26103c3565b90506103be82826104ee565b919050565b6000604051905090565b600067ffffffffffffffff8211156103e8576103e761057d565b5b6103f1826105c0565b9050602081019050919050565b600081519050919050565b600082825260208201905092915050565b600061042582610470565b915061043083610470565b9250827fffffffffffffffffffffffffffffffffffffffffffffffffffffffffffffffff038211156104655761046461051f565b5b828201905092915050565b6000819050919050565b82818337600083830152505050565b60005b838110156104a757808201518184015260208101905061048c565b838111156104b6576000848401525b50505050565b600060028204905060018216806104d457607f821691505b602082108114156104e8576104e761054e565b5b50919050565b6104f7826105c0565b810181811067ffffffffffffffff821117156105165761051561057d565b5b80604052505050565b7f4e487b7100000000000000000000000000000000000000000000000000000000600052601160045260246000fd5b7f4e487b7100000000000000000000000000000000000000000000000000000000600052602260045260246000fd5b7f4e487b7100000000000000000000000000000000000000000000000000000000600052604160045260246000fd5b600080fd5b600080fd5b600080fd5b600080fd5b6000601f19601f8301169050919050565b6105da81610470565b81146105e557600080fd5b5056fea2646970667358221220e21e18a926cbdcdcc1a9b6953a3f28c1b4f32350c8c798bc417b32af71a45d5864736f6c63430008070033",
					"opcodes": "PUSH1 0x80 PUSH1 0x40 MSTORE CALLVALUE DUP1 ISZERO PUSH2 0x10 JUMPI PUSH1 0x0 DUP1 REVERT JUMPDEST POP PUSH2 0x61E DUP1 PUSH2 0x20 PUSH1 0x0 CODECOPY PUSH1 0x0 RETURN INVALID PUSH1 0x80 PUSH1 0x40 MSTORE CALLVALUE DUP1 ISZERO PUSH2 0x10 JUMPI PUSH1 0x0 DUP1 REVERT JUMPDEST POP PUSH1 0x4 CALLDATASIZE LT PUSH2 0x41 JUMPI PUSH1 0x0 CALLDATALOAD PUSH1 0xE0 SHR DUP1 PUSH4 0x5F3CBFF5 EQ PUSH2 0x46 JUMPI DUP1 PUSH4 0x9D0C1397 EQ PUSH2 0x62 JUMPI DUP1 PUSH4 0xDA9A592C EQ PUSH2 0x80 JUMPI JUMPDEST PUSH1 0x0 DUP1 REVERT JUMPDEST PUSH2 0x60 PUSH1 0x4 DUP1 CALLDATASIZE SUB DUP2 ADD SWAP1 PUSH2 0x5B SWAP2 SWAP1 PUSH2 0x29A JUMP JUMPDEST PUSH2 0xB0 JUMP JUMPDEST STOP JUMPDEST PUSH2 0x6A PUSH2 0xCA JUMP JUMPDEST PUSH1 0x40 MLOAD PUSH2 0x77 SWAP2 SWAP1 PUSH2 0x36B JUMP JUMPDEST PUSH1 0x40 MLOAD DUP1 SWAP2 SUB SWAP1 RETURN JUMPDEST PUSH2 0x9A PUSH1 0x4 DUP1 CALLDATASIZE SUB DUP2 ADD SWAP1 PUSH2 0x95 SWAP2 SWAP1 PUSH2 0x2E3 JUMP JUMPDEST PUSH2 0x15C JUMP JUMPDEST PUSH1 0x40 MLOAD PUSH2 0xA7 SWAP2 SWAP1 PUSH2 0x38D JUMP JUMPDEST PUSH1 0x40 MLOAD DUP1 SWAP2 SUB SWAP1 RETURN JUMPDEST DUP1 PUSH1 0x0 SWAP1 DUP1 MLOAD SWAP1 PUSH1 0x20 ADD SWAP1 PUSH2 0xC6 SWAP3 SWAP2 SWAP1 PUSH2 0x172 JUMP JUMPDEST POP POP JUMP JUMPDEST PUSH1 0x60 PUSH1 0x0 DUP1 SLOAD PUSH2 0xD9 SWAP1 PUSH2 0x4BC JUMP JUMPDEST DUP1 PUSH1 0x1F ADD PUSH1 0x20 DUP1 SWAP2 DIV MUL PUSH1 0x20 ADD PUSH1 0x40 MLOAD SWAP1 DUP2 ADD PUSH1 0x40 MSTORE DUP1 SWAP3 SWAP2 SWAP1 DUP2 DUP2 MSTORE PUSH1 0x20 ADD DUP3 DUP1 SLOAD PUSH2 0x105 SWAP1 PUSH2 0x4BC JUMP JUMPDEST DUP1 ISZERO PUSH2 0x152 JUMPI DUP1 PUSH1 0x1F LT PUSH2 0x127 JUMPI PUSH2 0x100 DUP1 DUP4 SLOAD DIV MUL DUP4 MSTORE SWAP2 PUSH1 0x20 ADD SWAP2 PUSH2 0x152 JUMP JUMPDEST DUP3 ADD SWAP2 SWAP1 PUSH1 0x0 MSTORE PUSH1 0x20 PUSH1 0x0 KECCAK256 SWAP1 JUMPDEST DUP2 SLOAD DUP2 MSTORE SWAP1 PUSH1 0x1 ADD SWAP1 PUSH1 0x20 ADD DUP1 DUP4 GT PUSH2 0x135 JUMPI DUP3 SWAP1 SUB PUSH1 0x1F AND DUP3 ADD SWAP2 JUMPDEST POP POP POP POP POP SWAP1 POP SWAP1 JUMP JUMPDEST PUSH1 0x0 DUP2 DUP4 PUSH2 0x16A SWAP2 SWAP1 PUSH2 0x41A JUMP JUMPDEST SWAP1 POP SWAP3 SWAP2 POP POP JUMP JUMPDEST DUP3 DUP1 SLOAD PUSH2 0x17E SWAP1 PUSH2 0x4BC JUMP JUMPDEST SWAP1 PUSH1 0x0 MSTORE PUSH1 0x20 PUSH1 0x0 KECCAK256 SWAP1 PUSH1 0x1F ADD PUSH1 0x20 SWAP1 DIV DUP2 ADD SWAP3 DUP3 PUSH2 0x1A0 JUMPI PUSH1 0x0 DUP6 SSTORE PUSH2 0x1E7 JUMP JUMPDEST DUP3 PUSH1 0x1F LT PUSH2 0x1B9 JUMPI DUP1 MLOAD PUSH1 0xFF NOT AND DUP4 DUP1 ADD OR DUP6 SSTORE PUSH2 0x1E7 JUMP JUMPDEST DUP3 DUP1 ADD PUSH1 0x1 ADD DUP6 SSTORE DUP3 ISZERO PUSH2 0x1E7 JUMPI SWAP2 DUP3 ADD JUMPDEST DUP3 DUP2 GT ISZERO PUSH2 0x1E6 JUMPI DUP3 MLOAD DUP3 SSTORE SWAP2 PUSH1 0x20 ADD SWAP2 SWAP1 PUSH1 0x1 ADD SWAP1 PUSH2 0x1CB JUMP JUMPDEST JUMPDEST POP SWAP1 POP PUSH2 0x1F4 SWAP2 SWAP1 PUSH2 0x1F8 JUMP JUMPDEST POP SWAP1 JUMP JUMPDEST JUMPDEST DUP1 DUP3 GT ISZERO PUSH2 0x211 JUMPI PUSH1 0x0 DUP2 PUSH1 0x0 SWAP1 SSTORE POP PUSH1 0x1 ADD PUSH2 0x1F9 JUMP JUMPDEST POP SWAP1 JUMP JUMPDEST PUSH1 0x0 PUSH2 0x228 PUSH2 0x223 DUP5 PUSH2 0x3CD JUMP JUMPDEST PUSH2 0x3A8 JUMP JUMPDEST SWAP1 POP DUP3 DUP2 MSTORE PUSH1 0x20 DUP2 ADD DUP5 DUP5 DUP5 ADD GT ISZERO PUSH2 0x244 JUMPI PUSH2 0x243 PUSH2 0x5B1 JUMP JUMPDEST JUMPDEST PUSH2 0x24F DUP5 DUP3 DUP6 PUSH2 0x47A JUMP JUMPDEST POP SWAP4 SWAP3 POP POP POP JUMP JUMPDEST PUSH1 0x0 DUP3 PUSH1 0x1F DUP4 ADD SLT PUSH2 0x26C JUMPI PUSH2 0x26B PUSH2 0x5AC JUMP JUMPDEST JUMPDEST DUP2 CALLDATALOAD PUSH2 0x27C DUP5 DUP3 PUSH1 0x20 DUP7 ADD PUSH2 0x215 JUMP JUMPDEST SWAP2 POP POP SWAP3 SWAP2 POP POP JUMP JUMPDEST PUSH1 0x0 DUP2 CALLDATALOAD SWAP1 POP PUSH2 0x294 DUP2 PUSH2 0x5D1 JUMP JUMPDEST SWAP3 SWAP2 POP POP JUMP JUMPDEST PUSH1 0x0 PUSH1 0x20 DUP3 DUP5 SUB SLT ISZERO PUSH2 0x2B0 JUMPI PUSH2 0x2AF PUSH2 0x5BB JUMP JUMPDEST JUMPDEST PUSH1 0x0 DUP3 ADD CALLDATALOAD PUSH8 0xFFFFFFFFFFFFFFFF DUP2 GT ISZERO PUSH2 0x2CE JUMPI PUSH2 0x2CD PUSH2 0x5B6 JUMP JUMPDEST JUMPDEST PUSH2 0x2DA DUP5 DUP3 DUP6 ADD PUSH2 0x257 JUMP JUMPDEST SWAP2 POP POP SWAP3 SWAP2 POP POP JUMP JUMPDEST PUSH1 0x0 DUP1 PUSH1 0x40 DUP4 DUP6 SUB SLT ISZERO PUSH2 0x2FA JUMPI PUSH2 0x2F9 PUSH2 0x5BB JUMP JUMPDEST JUMPDEST PUSH1 0x0 PUSH2 0x308 DUP6 DUP3 DUP7 ADD PUSH2 0x285 JUMP JUMPDEST SWAP3 POP POP PUSH1 0x20 PUSH2 0x319 DUP6 DUP3 DUP7 ADD PUSH2 0x285 JUMP JUMPDEST SWAP2 POP POP SWAP3 POP SWAP3 SWAP1 POP JUMP JUMPDEST PUSH1 0x0 PUSH2 0x32E DUP3 PUSH2 0x3FE JUMP JUMPDEST PUSH2 0x338 DUP2 DUP6 PUSH2 0x409 JUMP JUMPDEST SWAP4 POP PUSH2 0x348 DUP2 DUP6 PUSH1 0x20 DUP7 ADD PUSH2 0x489 JUMP JUMPDEST PUSH2 0x351 DUP2 PUSH2 0x5C0 JUMP JUMPDEST DUP5 ADD SWAP2 POP POP SWAP3 SWAP2 POP POP JUMP JUMPDEST PUSH2 0x365 DUP2 PUSH2 0x470 JUMP JUMPDEST DUP3 MSTORE POP POP JUMP JUMPDEST PUSH1 0x0 PUSH1 0x20 DUP3 ADD SWAP1 POP DUP2 DUP2 SUB PUSH1 0x0 DUP4 ADD MSTORE PUSH2 0x385 DUP2 DUP5 PUSH2 0x323 JUMP JUMPDEST SWAP1 POP SWAP3 SWAP2 POP POP JUMP JUMPDEST PUSH1 0x0 PUSH1 0x20 DUP3 ADD SWAP1 POP PUSH2 0x3A2 PUSH1 0x0 DUP4 ADD DUP5 PUSH2 0x35C JUMP JUMPDEST SWAP3 SWAP2 POP POP JUMP JUMPDEST PUSH1 0x0 PUSH2 0x3B2 PUSH2 0x3C3 JUMP JUMPDEST SWAP1 POP PUSH2 0x3BE DUP3 DUP3 PUSH2 0x4EE JUMP JUMPDEST SWAP2 SWAP1 POP JUMP JUMPDEST PUSH1 0x0 PUSH1 0x40 MLOAD SWAP1 POP SWAP1 JUMP JUMPDEST PUSH1 0x0 PUSH8 0xFFFFFFFFFFFFFFFF DUP3 GT ISZERO PUSH2 0x3E8 JUMPI PUSH2 0x3E7 PUSH2 0x57D JUMP JUMPDEST JUMPDEST PUSH2 0x3F1 DUP3 PUSH2 0x5C0 JUMP JUMPDEST SWAP1 POP PUSH1 0x20 DUP2 ADD SWAP1 POP SWAP2 SWAP1 POP JUMP JUMPDEST PUSH1 0x0 DUP2 MLOAD SWAP1 POP SWAP2 SWAP1 POP JUMP JUMPDEST PUSH1 0x0 DUP3 DUP3 MSTORE PUSH1 0x20 DUP3 ADD SWAP1 POP SWAP3 SWAP2 POP POP JUMP JUMPDEST PUSH1 0x0 PUSH2 0x425 DUP3 PUSH2 0x470 JUMP JUMPDEST SWAP2 POP PUSH2 0x430 DUP4 PUSH2 0x470 JUMP JUMPDEST SWAP3 POP DUP3 PUSH32 0xFFFFFFFFFFFFFFFFFFFFFFFFFFFFFFFFFFFFFFFFFFFFFFFFFFFFFFFFFFFFFFFF SUB DUP3 GT ISZERO PUSH2 0x465 JUMPI PUSH2 0x464 PUSH2 0x51F JUMP JUMPDEST JUMPDEST DUP3 DUP3 ADD SWAP1 POP SWAP3 SWAP2 POP POP JUMP JUMPDEST PUSH1 0x0 DUP2 SWAP1 POP SWAP2 SWAP1 POP JUMP JUMPDEST DUP3 DUP2 DUP4 CALLDATACOPY PUSH1 0x0 DUP4 DUP4 ADD MSTORE POP POP POP JUMP JUMPDEST PUSH1 0x0 JUMPDEST DUP4 DUP2 LT ISZERO PUSH2 0x4A7 JUMPI DUP1 DUP3 ADD MLOAD DUP2 DUP5 ADD MSTORE PUSH1 0x20 DUP2 ADD SWAP1 POP PUSH2 0x48C JUMP JUMPDEST DUP4 DUP2 GT ISZERO PUSH2 0x4B6 JUMPI PUSH1 0x0 DUP5 DUP5 ADD MSTORE JUMPDEST POP POP POP POP JUMP JUMPDEST PUSH1 0x0 PUSH1 0x2 DUP3 DIV SWAP1 POP PUSH1 0x1 DUP3 AND DUP1 PUSH2 0x4D4 JUMPI PUSH1 0x7F DUP3 AND SWAP2 POP JUMPDEST PUSH1 0x20 DUP3 LT DUP2 EQ ISZERO PUSH2 0x4E8 JUMPI PUSH2 0x4E7 PUSH2 0x54E JUMP JUMPDEST JUMPDEST POP SWAP2 SWAP1 POP JUMP JUMPDEST PUSH2 0x4F7 DUP3 PUSH2 0x5C0 JUMP JUMPDEST DUP2 ADD DUP2 DUP2 LT PUSH8 0xFFFFFFFFFFFFFFFF DUP3 GT OR ISZERO PUSH2 0x516 JUMPI PUSH2 0x515 PUSH2 0x57D JUMP JUMPDEST JUMPDEST DUP1 PUSH1 0x40 MSTORE POP POP POP JUMP JUMPDEST PUSH32 0x4E487B7100000000000000000000000000000000000000000000000000000000 PUSH1 0x0 MSTORE PUSH1 0x11 PUSH1 0x4 MSTORE PUSH1 0x24 PUSH1 0x0 REVERT JUMPDEST PUSH32 0x4E487B7100000000000000000000000000000000000000000000000000000000 PUSH1 0x0 MSTORE PUSH1 0x22 PUSH1 0x4 MSTORE PUSH1 0x24 PUSH1 0x0 REVERT JUMPDEST PUSH32 0x4E487B7100000000000000000000000000000000000000000000000000000000 PUSH1 0x0 MSTORE PUSH1 0x41 PUSH1 0x4 MSTORE PUSH1 0x24 PUSH1 0x0 REVERT JUMPDEST PUSH1 0x0 DUP1 REVERT JUMPDEST PUSH1 0x0 DUP1 REVERT JUMPDEST PUSH1 0x0 DUP1 REVERT JUMPDEST PUSH1 0x0 DUP1 REVERT JUMPDEST PUSH1 0x0 PUSH1 0x1F NOT PUSH1 0x1F DUP4 ADD AND SWAP1 POP SWAP2 SWAP1 POP JUMP JUMPDEST PUSH2 0x5DA DUP2 PUSH2 0x470 JUMP JUMPDEST DUP2 EQ PUSH2 0x5E5 JUMPI PUSH1 0x0 DUP1 REVERT JUMPDEST POP JUMP INVALID LOG2 PUSH5 0x6970667358 0x22 SLT KECCAK256 0xE2 0x1E XOR 0xA9 0x26 0xCB 0xDC 0xDC 0xC1 0xA9 0xB6 SWAP6 GASPRICE EXTCODEHASH 0x28 0xC1 0xB4 RETURN 0x23 POP 0xC8 0xC7 SWAP9 0xBC COINBASE PUSH28 0x32AF71A45D5864736F6C634300080700330000000000000000000000 "
				},
				"gasEstimates": {
					"creation": {
						"codeDepositCost": "313200",
						"executionCost": "349",
						"totalCost": "313549"
					},
					"external": {
						"getMood()": "infinite",
						"pureFunction(uint256,uint256)": "infinite",
						"setMood(string)": "infinite"
					}
				},
				"methodIdentifiers": {
					"getMood()": "9d0c1397",
					"pureFunction(uint256,uint256)": "da9a592c",
					"setMood(string)": "5f3cbff5"
				}
			},
			"storageLayout": {
				"storage": [
					{
						"astId": 3,
						"contract": "contracts/Main.sol:MyContract",
						"label": "myMood",
						"offset": 0,
						"slot": "0",
						"type": "t_string_storage"
					}
				],
				"types": {
					"t_string_storage": {
						"encoding": "bytes",
						"label": "string",
						"numberOfBytes": "32"
					}
				}
			},
			"userdoc": {
				"kind": "user",
				"methods": {},
				"version": 1
			}
		}
	}
}